{
  "contractName": "Creator",
  "abi": [
    {
      "anonymous": false,
      "inputs": [
        {
          "indexed": false,
          "internalType": "address",
          "name": "_address",
          "type": "address"
        },
        {
          "indexed": false,
          "internalType": "address",
          "name": "_pass",
          "type": "address"
        },
        {
          "indexed": false,
          "internalType": "uint256",
          "name": "_oDate",
          "type": "uint256"
        },
        {
          "indexed": false,
          "internalType": "uint256",
          "name": "_cDate",
          "type": "uint256"
        },
        {
          "indexed": false,
          "internalType": "address",
          "name": "_owner",
          "type": "address"
        },
        {
          "indexed": false,
          "internalType": "string",
          "name": "_owner2",
          "type": "string"
        },
        {
          "indexed": false,
          "internalType": "uint256",
          "name": "_candidate",
          "type": "uint256"
        }
      ],
      "name": "creat",
      "type": "event"
    },
    {
      "constant": true,
      "inputs": [
        {
          "internalType": "address",
          "name": "",
          "type": "address"
        }
      ],
      "name": "list",
      "outputs": [
        {
          "internalType": "bool",
          "name": "",
          "type": "bool"
        }
      ],
      "payable": false,
      "stateMutability": "view",
      "type": "function"
    },
    {
      "constant": true,
      "inputs": [
        {
          "internalType": "address",
          "name": "",
          "type": "address"
        },
        {
          "internalType": "uint256",
          "name": "",
          "type": "uint256"
        }
      ],
      "name": "myVote",
      "outputs": [
        {
          "internalType": "address",
          "name": "",
          "type": "address"
        }
      ],
      "payable": false,
      "stateMutability": "view",
      "type": "function"
    },
    {
      "constant": true,
      "inputs": [],
      "name": "getMyVote",
      "outputs": [
        {
          "internalType": "address[]",
          "name": "",
          "type": "address[]"
        }
      ],
      "payable": false,
      "stateMutability": "view",
      "type": "function"
    },
    {
      "constant": false,
      "inputs": [
        {
          "internalType": "address",
          "name": "_pass",
          "type": "address"
        },
        {
          "internalType": "uint256",
          "name": "_eDate",
          "type": "uint256"
        },
        {
          "internalType": "string",
          "name": "_owner",
          "type": "string"
        },
        {
          "internalType": "uint256",
          "name": "_candidate",
          "type": "uint256"
        }
      ],
      "name": "creatVote",
      "outputs": [],
      "payable": false,
      "stateMutability": "nonpayable",
      "type": "function"
    }
  ],
  "bytecode": "0x608060405234801561001057600080fd5b50611a79806100206000396000f3fe608060405234801561001057600080fd5b506004361061004c5760003560e01c80631e000835146100515780638cb647d3146100df5780639e6010f51461013e578063bb032a661461022d575b600080fd5b61009d6004803603604081101561006757600080fd5b81019080803573ffffffffffffffffffffffffffffffffffffffff16906020019092919080359060200190929190505050610289565b604051808273ffffffffffffffffffffffffffffffffffffffff1673ffffffffffffffffffffffffffffffffffffffff16815260200191505060405180910390f35b6100e76102d4565b6040518080602001828103825283818151815260200191508051906020019060200280838360005b8381101561012a57808201518184015260208101905061010f565b505050509050019250505060405180910390f35b61022b6004803603608081101561015457600080fd5b81019080803573ffffffffffffffffffffffffffffffffffffffff169060200190929190803590602001909291908035906020019064010000000081111561019b57600080fd5b8201836020820111156101ad57600080fd5b803590602001918460018302840111640100000000831117156101cf57600080fd5b91908080601f016020809104026020016040519081016040528093929190818152602001838380828437600081840152601f19601f8201169050808301925050505050505091929192908035906020019092919050505061039f565b005b61026f6004803603602081101561024357600080fd5b81019080803573ffffffffffffffffffffffffffffffffffffffff169060200190929190505050610713565b604051808215151515815260200191505060405180910390f35b600160205281600052604060002081815481106102a257fe5b906000526020600020016000915091509054906101000a900473ffffffffffffffffffffffffffffffffffffffff1681565b6060600160003373ffffffffffffffffffffffffffffffffffffffff1673ffffffffffffffffffffffffffffffffffffffff16815260200190815260200160002080548060200260200160405190810160405280929190818152602001828054801561039557602002820191906000526020600020905b8160009054906101000a900473ffffffffffffffffffffffffffffffffffffffff1673ffffffffffffffffffffffffffffffffffffffff168152602001906001019080831161034b575b5050505050905090565b600042905060008585833387876040516103b890610733565b808773ffffffffffffffffffffffffffffffffffffffff1673ffffffffffffffffffffffffffffffffffffffff1681526020018681526020018581526020018473ffffffffffffffffffffffffffffffffffffffff1673ffffffffffffffffffffffffffffffffffffffff16815260200180602001838152602001828103825284818151815260200191508051906020019080838360005b8381101561046b578082015181840152602081019050610450565b50505050905090810190601f1680156104985780820380516001836020036101000a031916815260200191505b50975050505050505050604051809103906000f0801580156104be573d6000803e3d6000fd5b50905060016000808373ffffffffffffffffffffffffffffffffffffffff1673ffffffffffffffffffffffffffffffffffffffff16815260200190815260200160002060006101000a81548160ff021916908315150217905550600160003373ffffffffffffffffffffffffffffffffffffffff1673ffffffffffffffffffffffffffffffffffffffff1681526020019081526020016000208190806001815401808255809150509060018203906000526020600020016000909192909190916101000a81548173ffffffffffffffffffffffffffffffffffffffff021916908373ffffffffffffffffffffffffffffffffffffffff160217905550507fe21f29494cf560349dc6e6f42ecf46f2dcd5c3df9875b9c60c862ac768f211d281878785338989604051808873ffffffffffffffffffffffffffffffffffffffff1673ffffffffffffffffffffffffffffffffffffffff1681526020018773ffffffffffffffffffffffffffffffffffffffff1673ffffffffffffffffffffffffffffffffffffffff1681526020018681526020018581526020018473ffffffffffffffffffffffffffffffffffffffff1673ffffffffffffffffffffffffffffffffffffffff16815260200180602001838152602001828103825284818151815260200191508051906020019080838360005b838110156106cb5780820151818401526020810190506106b0565b50505050905090810190601f1680156106f85780820380516001836020036101000a031916815260200191505b509850505050505050505060405180910390a1505050505050565b60006020528060005260406000206000915054906101000a900460ff1681565b611304806107418339019056fe60806040523480156200001157600080fd5b506040516200130438038062001304833981810160405260c08110156200003757600080fd5b8101908080519060200190929190805190602001909291908051906020019092919080519060200190929190805160405193929190846401000000008211156200008057600080fd5b838201915060208201858111156200009757600080fd5b8251866001820283011164010000000082111715620000b557600080fd5b8083526020830192505050908051906020019080838360005b83811015620000eb578082015181840152602081019050620000ce565b50505050905090810190601f168015620001195780820380516001836020036101000a031916815260200191505b5060405260200180519060200190929190505050856000806101000a81548173ffffffffffffffffffffffffffffffffffffffff021916908373ffffffffffffffffffffffffffffffffffffffff160217905550846001819055508360028190555082600360006101000a81548173ffffffffffffffffffffffffffffffffffffffff021916908373ffffffffffffffffffffffffffffffffffffffff1602179055508160049080519060200190620001d492919062000260565b504260028190555060008090505b8181101562000253576005604051806040016040528083815260200160008152509080600181540180825580915050906001820390600052602060002090600202016000909192909190915060008201518160000155602082015181600101555050508080600101915050620001e2565b505050505050506200030f565b828054600181600116156101000203166002900490600052602060002090601f016020900481019282601f10620002a357805160ff1916838001178555620002d4565b82800160010185558215620002d4579182015b82811115620002d3578251825591602001919060010190620002b6565b5b509050620002e39190620002e7565b5090565b6200030c91905b8082111562000308576000816000905550600101620002ee565b5090565b90565b610fe5806200031f6000396000f3fe608060405234801561001057600080fd5b50600436106100a95760003560e01c80633433edd9116100715780633433edd9146102ad57806352709725146102f7578063839df9871461037a578063c0da1e6814610398578063c413ed9d146104c2578063d9e617d21461051f576100a9565b80630121b93f146100ae578063038defd7146100dc57806306a49fce14610120578063175092a5146101c75780631de43c4b1461027f575b600080fd5b6100da600480360360208110156100c457600080fd5b810190808035906020019092919050505061053d565b005b61011e600480360360208110156100f257600080fd5b81019080803573ffffffffffffffffffffffffffffffffffffffff169060200190929190505050610764565b005b610128610890565b604051808060200180602001838103835285818151815260200191508051906020019060200280838360005b8381101561016f578082015181840152602081019050610154565b50505050905001838103825284818151815260200191508051906020019060200280838360005b838110156101b1578082015181840152602081019050610196565b5050505090500194505050505060405180910390f35b61027d600480360360208110156101dd57600080fd5b81019080803590602001906401000000008111156101fa57600080fd5b82018360208201111561020c57600080fd5b8035906020019184602083028401116401000000008311171561022e57600080fd5b919080806020026020016040519081016040528093929190818152602001838360200280828437600081840152601f19601f8201169050808301925050505050505091929192905050506109a0565b005b6102ab6004803603602081101561029557600080fd5b8101908080359060200190929190505050610afc565b005b6102b5610c45565b604051808273ffffffffffffffffffffffffffffffffffffffff1673ffffffffffffffffffffffffffffffffffffffff16815260200191505060405180910390f35b6102ff610c6b565b6040518080602001828103825283818151815260200191508051906020019080838360005b8381101561033f578082015181840152602081019050610324565b50505050905090810190601f16801561036c5780820380516001836020036101000a031916815260200191505b509250505060405180910390f35b610382610d09565b6040518082815260200191505060405180910390f35b6103a0610d0f565b604051808773ffffffffffffffffffffffffffffffffffffffff1673ffffffffffffffffffffffffffffffffffffffff1681526020018673ffffffffffffffffffffffffffffffffffffffff1673ffffffffffffffffffffffffffffffffffffffff1681526020018581526020018481526020018373ffffffffffffffffffffffffffffffffffffffff1673ffffffffffffffffffffffffffffffffffffffff16815260200180602001828103825283818151815260200191508051906020019080838360005b83811015610482578082015181840152602081019050610467565b50505050905090810190601f1680156104af5780820380516001836020036101000a031916815260200191505b5097505050505050505060405180910390f35b610505600480360360608110156104d857600080fd5b81019080803560ff1690602001909291908035906020019092919080359060200190929190505050610e17565b604051808215151515815260200191505060405180910390f35b610527610faa565b6040518082815260200191505060405180910390f35b6001544211156105b5576040517f08c379a000000000000000000000000000000000000000000000000000000000815260040180806020018281038252600b8152602001807f6f7574206f66206461746500000000000000000000000000000000000000000081525060200191505060405180910390fd5b600080905060008090505b60068054905081101561064a573373ffffffffffffffffffffffffffffffffffffffff16600682815481106105f157fe5b9060005260206000200160009054906101000a900473ffffffffffffffffffffffffffffffffffffffff1673ffffffffffffffffffffffffffffffffffffffff16141561063d57600191505b80806001019150506105c0565b5060011515811515146106c5576040517f08c379a000000000000000000000000000000000000000000000000000000000815260040180806020018281038252600c8152602001807f436875612064616e67206b79000000000000000000000000000000000000000081525060200191505060405180910390fd5b60008090505b60058054905081101561075f5782600582815481106106e657fe5b9060005260206000209060020201600001541415610752576005818154811061070b57fe5b90600052602060002090600202016001016000815480929190600101919050556005828154811061073857fe5b90600052602060002090600202016001018190555061075f565b80806001019150506106cb565b505050565b600360009054906101000a900473ffffffffffffffffffffffffffffffffffffffff1673ffffffffffffffffffffffffffffffffffffffff163373ffffffffffffffffffffffffffffffffffffffff1614610827576040517f08c379a000000000000000000000000000000000000000000000000000000000815260040180806020018281038252600a8152602001807f6f6e6c79206f6e7765720000000000000000000000000000000000000000000081525060200191505060405180910390fd5b60068190806001815401808255809150509060018203906000526020600020016000909192909190916101000a81548173ffffffffffffffffffffffffffffffffffffffff021916908373ffffffffffffffffffffffffffffffffffffffff1602179055505050565b60608060606005805490506040519080825280602002602001820160405280156108c95781602001602082028038833980820191505090505b50905060606005805490506040519080825280602002602001820160405280156109025781602001602082028038833980820191505090505b50905060008090505b600580549050811015610993576005818154811061092557fe5b90600052602060002090600202016000015483828151811061094357fe5b6020026020010181815250506005818154811061095c57fe5b90600052602060002090600202016001015482828151811061097a57fe5b602002602001018181525050808060010191505061090b565b5081819350935050509091565b600360009054906101000a900473ffffffffffffffffffffffffffffffffffffffff1673ffffffffffffffffffffffffffffffffffffffff163373ffffffffffffffffffffffffffffffffffffffff1614610a63576040517f08c379a000000000000000000000000000000000000000000000000000000000815260040180806020018281038252600a8152602001807f6f6e6c79206f6e7765720000000000000000000000000000000000000000000081525060200191505060405180910390fd5b60008090505b8151811015610af8576006828281518110610a8057fe5b602002602001015190806001815401808255809150509060018203906000526020600020016000909192909190916101000a81548173ffffffffffffffffffffffffffffffffffffffff021916908373ffffffffffffffffffffffffffffffffffffffff160217905550508080600101915050610a69565b5050565b600360009054906101000a900473ffffffffffffffffffffffffffffffffffffffff1673ffffffffffffffffffffffffffffffffffffffff163373ffffffffffffffffffffffffffffffffffffffff1614610bbf576040517f08c379a000000000000000000000000000000000000000000000000000000000815260040180806020018281038252600a8152602001807f6f6e6c79206f6e7765720000000000000000000000000000000000000000000081525060200191505060405180910390fd5b6000600580549050905060008090505b82811015610c405760056040518060400160405280838501815260200160008152509080600181540180825580915050906001820390600052602060002090600202016000909192909190915060008201518160000155602082015181600101555050508080600101915050610bcf565b505050565b600360009054906101000a900473ffffffffffffffffffffffffffffffffffffffff1681565b60048054600181600116156101000203166002900480601f016020809104026020016040519081016040528092919081815260200182805460018160011615610100020316600290048015610d015780601f10610cd657610100808354040283529160200191610d01565b820191906000526020600020905b815481529060010190602001808311610ce457829003601f168201915b505050505081565b60025481565b60008060008060006060306000809054906101000a900473ffffffffffffffffffffffffffffffffffffffff16600154600254600360009054906101000a900473ffffffffffffffffffffffffffffffffffffffff166004808054600181600116156101000203166002900480601f016020809104026020016040519081016040528092919081815260200182805460018160011615610100020316600290048015610dfc5780601f10610dd157610100808354040283529160200191610dfc565b820191906000526020600020905b815481529060010190602001808311610ddf57829003601f168201915b50505050509050955095509550955095509550909192939495565b600080600133604051602001808273ffffffffffffffffffffffffffffffffffffffff1673ffffffffffffffffffffffffffffffffffffffff1660601b81526014019150506040516020818303038152906040528051906020012086868660405160008152602001604052604051808581526020018460ff1660ff1681526020018381526020018281526020019450505050506020604051602081039080840390855afa158015610ecc573d6000803e3d6000fd5b5050506020604051035190506000809054906101000a900473ffffffffffffffffffffffffffffffffffffffff1673ffffffffffffffffffffffffffffffffffffffff168173ffffffffffffffffffffffffffffffffffffffff161415610f9d5760063390806001815401808255809150509060018203906000526020600020016000909192909190916101000a81548173ffffffffffffffffffffffffffffffffffffffff021916908373ffffffffffffffffffffffffffffffffffffffff160217905550506001915050610fa3565b60009150505b9392505050565b6001548156fea265627a7a723158200fbdbf870bc491ffa08b5c5faac5a01992c2e05f70787fb9e0130d9a8a846b2c64736f6c63430005100032a265627a7a72315820da70dcb3b03089067909bc1c667d38a959df52c74a4f4b5a3630b31e9736782964736f6c63430005100032",
  "source": "pragma solidity >=0.4.21 <0.7.0;\n\ncontract Vote {\n  address private pass;\n  uint public eDate;\n  uint public cDate;\n  address public onwer;\n  string public owner2;\n\n  struct Candidate {\n    uint id;\n    uint count;\n  }\n  Candidate[] arrgs;\n  address[] register;\n  constructor(address _pass,uint _oDate,uint _cDate,address _owner, string memory _owner2,uint _candidate) public {\n    pass = _pass;\n    eDate = _oDate;\n    cDate = _cDate;\n    onwer = _owner;\n    owner2 = _owner2;\n    cDate = now;\n    for (uint i = 0;i < _candidate;i++){\n        arrgs.push(Candidate(i,0));\n    }\n  }\n  function getInformation() public view returns(address,address,uint,uint,address,string memory){\n    return (address(this),pass,eDate,cDate,onwer,owner2);\n  }\n  function getCandidates() public view returns(uint[] memory, uint[] memory){  \n    uint[] memory id = new uint[](arrgs.length);\n    uint[] memory count = new uint[](arrgs.length);\n    for (uint i = 0;i<arrgs.length;i++){\n      id[i] = arrgs[i].id;\n      count[i] = arrgs[i].count;\n    }\n    return(id,count);\n  }\n  modifier onlyOnwer(){\n    require(msg.sender == onwer,\"only onwer\");\n    _;\n  }\n  modifier outDate(){\n    require(now <= eDate,\"out of date\");\n    _;\n  }\n  modifier allow(){\n      bool kt = false;\n      for (uint i = 0;i<register.length;i++) if (register[i] == msg.sender) kt = true;\n      require(kt == true,\"Chua dang ky\");\n      _;\n  }\n  function candidate(uint _id) public onlyOnwer() {\n    uint x = arrgs.length;\n    for (uint i = 0;i < _id;i++){\n        arrgs.push(Candidate(x+i,0));\n    }\n  }\n\n   function registry(address[] memory _register) public onlyOnwer() {\n    for (uint i = 0;i < _register.length;i++){\n        register.push(_register[i]);\n    }\n  }\n   function registry(address _address) public onlyOnwer() {\n    register.push(_address);\n  }\n  function registry( uint8 _v, bytes32 _r, bytes32 _s) public returns(bool){\n       address x = ecrecover(keccak256(abi.encodePacked(msg.sender)), _v, _r, _s);\n       if (x == pass) {\n         register.push(msg.sender);\n         return true;\n       }\n       else return false;\n  }\n  function vote(uint _id) public outDate() allow()  {\n    for (uint i = 0 ;i<arrgs.length;i++){\n      if (arrgs[i].id == _id){\n        arrgs[i].count = arrgs[i].count++;\n        break;\n      }\n    }\n  }\n}\n\ncontract Creator {\n  event creat(address _address,address _pass,uint _oDate,uint _cDate,address _owner, string _owner2,uint _candidate);\n  mapping (address=> bool) public list;\n  mapping (address => address[]) public myVote;\n  function getMyVote() public view returns(address[] memory) {\n    return myVote[msg.sender];\n  }\n  function creatVote(address _pass,uint _eDate, string memory _owner,uint _candidate) public   {\n    uint _cDate = now;\n    Vote x = new Vote(_pass,_eDate,_cDate,msg.sender,_owner,_candidate);\n    list[address(x)] = true;\n    myVote[msg.sender].push(address(x));\n    emit creat(address(x),_pass,_eDate,_cDate,msg.sender,_owner,_candidate);\n  }\n}",
  "sourcePath": "D:\\Project\\react\\hoi\\server\\truffle\\contracts\\Vote.sol",
  "compiler": {
    "name": "solc",
    "version": "0.5.16+commit.9c3226ce.Emscripten.clang"
  },
  "schemaVersion": "3.0.23",
  "updatedAt": "2020-03-30T08:45:09.344Z",
  "networkType": "ethereum",
  "devdoc": {
    "methods": {}
  },
  "userdoc": {
    "methods": {}
  }
}